{
  "address": "0x4500773f3a07Ace459dFb836a3F87C1E943C2763",
  "abi": [
    {
      "anonymous": false,
      "inputs": [
        {
          "indexed": true,
          "internalType": "address",
          "name": "warrantyContractAddress",
          "type": "address"
        }
      ],
      "name": "SellerCreated",
      "type": "event"
    },
    {
      "inputs": [
        {
          "internalType": "string",
          "name": "NFTName",
          "type": "string"
        },
        {
          "internalType": "string",
          "name": "NFTSymbol",
          "type": "string"
        }
      ],
      "name": "createSeller",
      "outputs": [
        {
          "internalType": "contract WarrantyNFT",
          "name": "",
          "type": "address"
        }
      ],
      "stateMutability": "nonpayable",
      "type": "function"
    },
    {
      "inputs": [],
      "name": "getWarrantyContract",
      "outputs": [
        {
          "internalType": "contract WarrantyNFT",
          "name": "",
          "type": "address"
        }
      ],
      "stateMutability": "view",
      "type": "function"
    },
    {
      "inputs": [
        {
          "internalType": "address",
          "name": "",
          "type": "address"
        }
      ],
      "name": "sellers",
      "outputs": [
        {
          "internalType": "contract WarrantyNFT",
          "name": "WarrantyContract",
          "type": "address"
        },
        {
          "internalType": "bool",
          "name": "isValue",
          "type": "bool"
        }
      ],
      "stateMutability": "view",
      "type": "function"
    }
  ],
  "transactionHash": "0x9a4e2b39c0a13c1aab86d9b3ffa844a327c28d902b7ec1328f2ec70038252695",
  "args": [],
  "numDeployments": 1,
  "solcInputHash": "b22f33165b7ba280da46b7b851610cd0",
  "bytecode": "0x608060405234801561001057600080fd5b50613d0e806100206000396000f3fe60806040523480156200001157600080fd5b5060043610620000465760003560e01c80634b6918c7146200004b5780636d47ab72146200006d5780639691e2a214620000a4575b600080fd5b62000055620000da565b604051620000649190620003f7565b60405180910390f35b6200008b60048036038101906200008591906200046d565b62000143565b6040516200009b929190620004bc565b60405180910390f35b620000c26004803603810190620000bc91906200064b565b62000194565b604051620000d19190620003f7565b60405180910390f35b60008060003373ffffffffffffffffffffffffffffffffffffffff1673ffffffffffffffffffffffffffffffffffffffff16815260200190815260200160002060000160009054906101000a900473ffffffffffffffffffffffffffffffffffffffff16905090565b60006020528060005260406000206000915090508060000160009054906101000a900473ffffffffffffffffffffffffffffffffffffffff16908060000160149054906101000a900460ff16905082565b600080338484604051620001a8906200035e565b620001b69392919062000774565b604051809103906000f080158015620001d3573d6000803e3d6000fd5b509050806000803373ffffffffffffffffffffffffffffffffffffffff1673ffffffffffffffffffffffffffffffffffffffff16815260200190815260200160002060000160006101000a81548173ffffffffffffffffffffffffffffffffffffffff021916908373ffffffffffffffffffffffffffffffffffffffff16021790555060016000803373ffffffffffffffffffffffffffffffffffffffff1673ffffffffffffffffffffffffffffffffffffffff16815260200190815260200160002060000160146101000a81548160ff0219169083151502179055508073ffffffffffffffffffffffffffffffffffffffff167f2f07e7152a042cda69d708583b500ca5ec9f999fd8e1e4fe1330b3bdb0afa52d60405160405180910390a26000803373ffffffffffffffffffffffffffffffffffffffff1673ffffffffffffffffffffffffffffffffffffffff16815260200190815260200160002060000160009054906101000a900473ffffffffffffffffffffffffffffffffffffffff1691505092915050565b61351980620007c083390190565b600073ffffffffffffffffffffffffffffffffffffffff82169050919050565b6000819050919050565b6000620003b7620003b1620003ab846200036c565b6200038c565b6200036c565b9050919050565b6000620003cb8262000396565b9050919050565b6000620003df82620003be565b9050919050565b620003f181620003d2565b82525050565b60006020820190506200040e6000830184620003e6565b92915050565b6000604051905090565b600080fd5b600080fd5b600062000435826200036c565b9050919050565b620004478162000428565b81146200045357600080fd5b50565b60008135905062000467816200043c565b92915050565b6000602082840312156200048657620004856200041e565b5b6000620004968482850162000456565b91505092915050565b60008115159050919050565b620004b6816200049f565b82525050565b6000604082019050620004d36000830185620003e6565b620004e26020830184620004ab565b9392505050565b600080fd5b600080fd5b6000601f19601f8301169050919050565b7f4e487b7100000000000000000000000000000000000000000000000000000000600052604160045260246000fd5b6200053e82620004f3565b810181811067ffffffffffffffff8211171562000560576200055f62000504565b5b80604052505050565b60006200057562000414565b905062000583828262000533565b919050565b600067ffffffffffffffff821115620005a657620005a562000504565b5b620005b182620004f3565b9050602081019050919050565b82818337600083830152505050565b6000620005e4620005de8462000588565b62000569565b905082815260208101848484011115620006035762000602620004ee565b5b62000610848285620005be565b509392505050565b600082601f83011262000630576200062f620004e9565b5b813562000642848260208601620005cd565b91505092915050565b600080604083850312156200066557620006646200041e565b5b600083013567ffffffffffffffff81111562000686576200068562000423565b5b620006948582860162000618565b925050602083013567ffffffffffffffff811115620006b857620006b762000423565b5b620006c68582860162000618565b9150509250929050565b620006db8162000428565b82525050565b600081519050919050565b600082825260208201905092915050565b60005b838110156200071d57808201518184015260208101905062000700565b838111156200072d576000848401525b50505050565b60006200074082620006e1565b6200074c8185620006ec565b93506200075e818560208601620006fd565b6200076981620004f3565b840191505092915050565b60006060820190506200078b6000830186620006d0565b81810360208301526200079f818562000733565b90508181036040830152620007b5818462000733565b905094935050505056fe60a06040523480156200001157600080fd5b50604051620035193803806200351983398181016040528101906200003791906200035f565b8181816000908051906020019062000051929190620000ad565b5080600190805190602001906200006a929190620000ad565b5050508273ffffffffffffffffffffffffffffffffffffffff1660808173ffffffffffffffffffffffffffffffffffffffff1660601b815250505050506200045e565b828054620000bb9062000428565b90600052602060002090601f016020900481019282620000df57600085556200012b565b82601f10620000fa57805160ff19168380011785556200012b565b828001600101855582156200012b579182015b828111156200012a5782518255916020019190600101906200010d565b5b5090506200013a91906200013e565b5090565b5b80821115620001595760008160009055506001016200013f565b5090565b6000604051905090565b600080fd5b600080fd5b600073ffffffffffffffffffffffffffffffffffffffff82169050919050565b60006200019e8262000171565b9050919050565b620001b08162000191565b8114620001bc57600080fd5b50565b600081519050620001d081620001a5565b92915050565b600080fd5b600080fd5b6000601f19601f8301169050919050565b7f4e487b7100000000000000000000000000000000000000000000000000000000600052604160045260246000fd5b6200022b82620001e0565b810181811067ffffffffffffffff821117156200024d576200024c620001f1565b5b80604052505050565b6000620002626200015d565b905062000270828262000220565b919050565b600067ffffffffffffffff821115620002935762000292620001f1565b5b6200029e82620001e0565b9050602081019050919050565b60005b83811015620002cb578082015181840152602081019050620002ae565b83811115620002db576000848401525b50505050565b6000620002f8620002f28462000275565b62000256565b905082815260208101848484011115620003175762000316620001db565b5b62000324848285620002ab565b509392505050565b600082601f830112620003445762000343620001d6565b5b815162000356848260208601620002e1565b91505092915050565b6000806000606084860312156200037b576200037a62000167565b5b60006200038b86828701620001bf565b935050602084015167ffffffffffffffff811115620003af57620003ae6200016c565b5b620003bd868287016200032c565b925050604084015167ffffffffffffffff811115620003e157620003e06200016c565b5b620003ef868287016200032c565b9150509250925092565b7f4e487b7100000000000000000000000000000000000000000000000000000000600052602260045260246000fd5b600060028204905060018216806200044157607f821691505b60208210811415620004585762000457620003f9565b5b50919050565b60805160601c61309f6200047a6000396000505061309f6000f3fe608060405234801561001057600080fd5b50600436106101165760003560e01c806370a08231116100a2578063b88d4fde11610071578063b88d4fde14610308578063b9b255e214610324578063c87b56dd14610342578063e985e9c514610372578063fff70e11146103a257610116565b806370a082311461026e57806395d89b411461029e578063a085e05d146102bc578063a22cb465146102ec57610116565b806323b872dd116100e957806323b872dd146101b557806342842e0e146101d15780635e1f6edc146101ed5780636352211e146102225780636ebd45d81461025257610116565b806301ffc9a71461011b57806306fdde031461014b578063081812fc14610169578063095ea7b314610199575b600080fd5b61013560048036038101906101309190611ef5565b6103c0565b6040516101429190611f3d565b60405180910390f35b6101536104a2565b6040516101609190611ff1565b60405180910390f35b610183600480360381019061017e9190612049565b610534565b60405161019091906120b7565b60405180910390f35b6101b360048036038101906101ae91906120fe565b61057a565b005b6101cf60048036038101906101ca919061213e565b610692565b005b6101eb60048036038101906101e6919061213e565b6106f2565b005b61020760048036038101906102029190612049565b610712565b604051610219969594939291906121a0565b60405180910390f35b61023c60048036038101906102379190612049565b61086b565b60405161024991906120b7565b60405180910390f35b61026c60048036038101906102679190612344565b61091d565b005b610288600480360381019061028391906123f7565b610c43565b6040516102959190612424565b60405180910390f35b6102a6610cfb565b6040516102b39190611ff1565b60405180910390f35b6102d660048036038101906102d19190612049565b610d8d565b6040516102e39190612424565b60405180910390f35b6103066004803603810190610301919061246b565b610dfd565b005b610322600480360381019061031d919061254c565b610e13565b005b61032c610e75565b604051610339919061268d565b60405180910390f35b61035c60048036038101906103579190612049565b610f0a565b6040516103699190611ff1565b60405180910390f35b61038c600480360381019061038791906126af565b6110c8565b6040516103999190611f3d565b60405180910390f35b6103aa61115c565b6040516103b791906127fb565b60405180910390f35b60007f80ac58cd000000000000000000000000000000000000000000000000000000007bffffffffffffffffffffffffffffffffffffffffffffffffffffffff1916827bffffffffffffffffffffffffffffffffffffffffffffffffffffffff1916148061048b57507f5b5e139f000000000000000000000000000000000000000000000000000000007bffffffffffffffffffffffffffffffffffffffffffffffffffffffff1916827bffffffffffffffffffffffffffffffffffffffffffffffffffffffff1916145b8061049b575061049a826112aa565b5b9050919050565b6060600080546104b19061284c565b80601f01602080910402602001604051908101604052809291908181526020018280546104dd9061284c565b801561052a5780601f106104ff5761010080835404028352916020019161052a565b820191906000526020600020905b81548152906001019060200180831161050d57829003601f168201915b5050505050905090565b600061053f82611314565b6004600083815260200190815260200160002060009054906101000a900473ffffffffffffffffffffffffffffffffffffffff169050919050565b60006105858261086b565b90508073ffffffffffffffffffffffffffffffffffffffff168373ffffffffffffffffffffffffffffffffffffffff1614156105f6576040517f08c379a00000000000000000000000000000000000000000000000000000000081526004016105ed906128f0565b60405180910390fd5b8073ffffffffffffffffffffffffffffffffffffffff1661061561135f565b73ffffffffffffffffffffffffffffffffffffffff16148061064457506106438161063e61135f565b6110c8565b5b610683576040517f08c379a000000000000000000000000000000000000000000000000000000000815260040161067a90612982565b60405180910390fd5b61068d8383611367565b505050565b6106a361069d61135f565b82611420565b6106e2576040517f08c379a00000000000000000000000000000000000000000000000000000000081526004016106d990612a14565b60405180910390fd5b6106ed8383836114b5565b505050565b61070d83838360405180602001604052806000815250610e13565b505050565b60086020528060005260406000206000915090508060000154908060010154908060020180546107419061284c565b80601f016020809104026020016040519081016040528092919081815260200182805461076d9061284c565b80156107ba5780601f1061078f576101008083540402835291602001916107ba565b820191906000526020600020905b81548152906001019060200180831161079d57829003601f168201915b5050505050908060030180546107cf9061284c565b80601f01602080910402602001604051908101604052809291908181526020018280546107fb9061284c565b80156108485780601f1061081d57610100808354040283529160200191610848565b820191906000526020600020905b81548152906001019060200180831161082b57829003601f168201915b5050505050908060040154908060050160009054906101000a900460ff16905086565b6000806002600084815260200190815260200160002060009054906101000a900473ffffffffffffffffffffffffffffffffffffffff169050600073ffffffffffffffffffffffffffffffffffffffff168173ffffffffffffffffffffffffffffffffffffffff161415610914576040517f08c379a000000000000000000000000000000000000000000000000000000000815260040161090b90612a80565b60405180910390fd5b80915050919050565b60006109b6600760008873ffffffffffffffffffffffffffffffffffffffff1673ffffffffffffffffffffffffffffffffffffffff1681526020019081526020016000208054806020026020016040519081016040528092919081815260200182805480156109ab57602002820191906000526020600020905b815481526020019060010190808311610997575b50505050508661171c565b905080156109f0576040517fa3dc114a00000000000000000000000000000000000000000000000000000000815260040160405180910390fd5b600760008773ffffffffffffffffffffffffffffffffffffffff1673ffffffffffffffffffffffffffffffffffffffff1681526020019081526020016000208590806001815401808255809150506001900390600052602060002001600090919091909150556000600a60008781526020019081526020016000205414610aa3576040517f3263593f00000000000000000000000000000000000000000000000000000000815260040160405180910390fd5b610aad6006611776565b6000610ab9600661178c565b9050610ac5878261179a565b6040518060c00160405280828152602001848152602001868152602001858152602001428152602001600015158152506008600083815260200190815260200160002060008201518160000155602082015181600101556040820151816002019080519060200190610b38929190611de6565b506060820151816003019080519060200190610b55929190611de6565b506080820151816004015560a08201518160050160006101000a81548160ff02191690831515021790555090505080600a600088815260200190815260200160002081905550600960008873ffffffffffffffffffffffffffffffffffffffff1673ffffffffffffffffffffffffffffffffffffffff1681526020019081526020016000208190806001815401808255809150506001900390600052602060002001600090919091909150557f0176f203df400d7bd5f1b1c9ef36c16709bf3b5d9fd35f000a6bae32393f66c38188604051610c32929190612aa0565b60405180910390a150505050505050565b60008073ffffffffffffffffffffffffffffffffffffffff168273ffffffffffffffffffffffffffffffffffffffff161415610cb4576040517f08c379a0000000000000000000000000000000000000000000000000000000008152600401610cab90612b3b565b60405180910390fd5b600360008373ffffffffffffffffffffffffffffffffffffffff1673ffffffffffffffffffffffffffffffffffffffff168152602001908152602001600020549050919050565b606060018054610d0a9061284c565b80601f0160208091040260200160405190810160405280929190818152602001828054610d369061284c565b8015610d835780601f10610d5857610100808354040283529160200191610d83565b820191906000526020600020905b815481529060010190602001808311610d6657829003601f168201915b5050505050905090565b600080600a6000848152602001908152602001600020541415610ddc576040517f4ec6212e00000000000000000000000000000000000000000000000000000000815260040160405180910390fd5b6000600a600084815260200190815260200160002054905080915050919050565b610e0f610e0861135f565b83836117b8565b5050565b610e24610e1e61135f565b83611420565b610e63576040517f08c379a0000000000000000000000000000000000000000000000000000000008152600401610e5a90612a14565b60405180910390fd5b610e6f84848484611925565b50505050565b6060600760003373ffffffffffffffffffffffffffffffffffffffff1673ffffffffffffffffffffffffffffffffffffffff168152602001908152602001600020805480602002602001604051908101604052809291908181526020018280548015610f0057602002820191906000526020600020905b815481526020019060010190808311610eec575b5050505050905090565b60606000600860008481526020019081526020016000206040518060c00160405290816000820154815260200160018201548152602001600282018054610f509061284c565b80601f0160208091040260200160405190810160405280929190818152602001828054610f7c9061284c565b8015610fc95780601f10610f9e57610100808354040283529160200191610fc9565b820191906000526020600020905b815481529060010190602001808311610fac57829003601f168201915b50505050508152602001600382018054610fe29061284c565b80601f016020809104026020016040519081016040528092919081815260200182805461100e9061284c565b801561105b5780601f106110305761010080835404028352916020019161105b565b820191906000526020600020905b81548152906001019060200180831161103e57829003601f168201915b50505050508152602001600482015481526020016005820160009054906101000a900460ff1615151515815250509050600081602001518260800151426110a29190612b8a565b11905080156110b9578160600151925050506110c3565b8160400151925050505b919050565b6000600560008473ffffffffffffffffffffffffffffffffffffffff1673ffffffffffffffffffffffffffffffffffffffff16815260200190815260200160002060008373ffffffffffffffffffffffffffffffffffffffff1673ffffffffffffffffffffffffffffffffffffffff16815260200190815260200160002060009054906101000a900460ff16905092915050565b60606000600960003373ffffffffffffffffffffffffffffffffffffffff1673ffffffffffffffffffffffffffffffffffffffff1681526020019081526020016000208054806020026020016040519081016040528092919081815260200182805480156111e957602002820191906000526020600020905b8154815260200190600101908083116111d5575b505050505090506000815167ffffffffffffffff81111561120d5761120c612219565b5b60405190808252806020026020018201604052801561124057816020015b606081526020019060019003908161122b5790505b50905060005b82518110156112a15761127283828151811061126557611264612bbe565b5b6020026020010151610f0a565b82828151811061128557611284612bbe565b5b60200260200101819052508061129a90612bed565b9050611246565b50809250505090565b60007f01ffc9a7000000000000000000000000000000000000000000000000000000007bffffffffffffffffffffffffffffffffffffffffffffffffffffffff1916827bffffffffffffffffffffffffffffffffffffffffffffffffffffffff1916149050919050565b61131d81611981565b61135c576040517f08c379a000000000000000000000000000000000000000000000000000000000815260040161135390612a80565b60405180910390fd5b50565b600033905090565b816004600083815260200190815260200160002060006101000a81548173ffffffffffffffffffffffffffffffffffffffff021916908373ffffffffffffffffffffffffffffffffffffffff160217905550808273ffffffffffffffffffffffffffffffffffffffff166113da8361086b565b73ffffffffffffffffffffffffffffffffffffffff167f8c5be1e5ebec7d5bd14f71427d1e84f3dd0314c0f7b2291e5b200ac8c7c3b92560405160405180910390a45050565b60008061142c8361086b565b90508073ffffffffffffffffffffffffffffffffffffffff168473ffffffffffffffffffffffffffffffffffffffff16148061146e575061146d81856110c8565b5b806114ac57508373ffffffffffffffffffffffffffffffffffffffff1661149484610534565b73ffffffffffffffffffffffffffffffffffffffff16145b91505092915050565b8273ffffffffffffffffffffffffffffffffffffffff166114d58261086b565b73ffffffffffffffffffffffffffffffffffffffff161461152b576040517f08c379a000000000000000000000000000000000000000000000000000000000815260040161152290612ca8565b60405180910390fd5b600073ffffffffffffffffffffffffffffffffffffffff168273ffffffffffffffffffffffffffffffffffffffff16141561159b576040517f08c379a000000000000000000000000000000000000000000000000000000000815260040161159290612d3a565b60405180910390fd5b6115a68383836119ed565b6115b1600082611367565b6001600360008573ffffffffffffffffffffffffffffffffffffffff1673ffffffffffffffffffffffffffffffffffffffff16815260200190815260200160002060008282546116019190612b8a565b925050819055506001600360008473ffffffffffffffffffffffffffffffffffffffff1673ffffffffffffffffffffffffffffffffffffffff16815260200190815260200160002060008282546116589190612d5a565b92505081905550816002600083815260200190815260200160002060006101000a81548173ffffffffffffffffffffffffffffffffffffffff021916908373ffffffffffffffffffffffffffffffffffffffff160217905550808273ffffffffffffffffffffffffffffffffffffffff168473ffffffffffffffffffffffffffffffffffffffff167fddf252ad1be2c89b69c2b068fc378daa952ba7f163c4a11628f55a4df523b3ef60405160405180910390a46117178383836119f2565b505050565b600080600090505b835181101561176a578284828151811061174157611740612bbe565b5b60200260200101511415611759576001915050611770565b8061176390612bed565b9050611724565b50600090505b92915050565b6001816000016000828254019250508190555050565b600081600001549050919050565b6117b48282604051806020016040528060008152506119f7565b5050565b8173ffffffffffffffffffffffffffffffffffffffff168373ffffffffffffffffffffffffffffffffffffffff161415611827576040517f08c379a000000000000000000000000000000000000000000000000000000000815260040161181e90612dfc565b60405180910390fd5b80600560008573ffffffffffffffffffffffffffffffffffffffff1673ffffffffffffffffffffffffffffffffffffffff16815260200190815260200160002060008473ffffffffffffffffffffffffffffffffffffffff1673ffffffffffffffffffffffffffffffffffffffff16815260200190815260200160002060006101000a81548160ff0219169083151502179055508173ffffffffffffffffffffffffffffffffffffffff168373ffffffffffffffffffffffffffffffffffffffff167f17307eab39ab6107e8899845ad3d59bd9653f200f220920489ca2b5937696c31836040516119189190611f3d565b60405180910390a3505050565b6119308484846114b5565b61193c84848484611a52565b61197b576040517f08c379a000000000000000000000000000000000000000000000000000000000815260040161197290612e8e565b60405180910390fd5b50505050565b60008073ffffffffffffffffffffffffffffffffffffffff166002600084815260200190815260200160002060009054906101000a900473ffffffffffffffffffffffffffffffffffffffff1673ffffffffffffffffffffffffffffffffffffffff1614159050919050565b505050565b505050565b611a018383611be9565b611a0e6000848484611a52565b611a4d576040517f08c379a0000000000000000000000000000000000000000000000000000000008152600401611a4490612e8e565b60405180910390fd5b505050565b6000611a738473ffffffffffffffffffffffffffffffffffffffff16611dc3565b15611bdc578373ffffffffffffffffffffffffffffffffffffffff1663150b7a02611a9c61135f565b8786866040518563ffffffff1660e01b8152600401611abe9493929190612f03565b602060405180830381600087803b158015611ad857600080fd5b505af1925050508015611b0957506040513d601f19601f82011682018060405250810190611b069190612f64565b60015b611b8c573d8060008114611b39576040519150601f19603f3d011682016040523d82523d6000602084013e611b3e565b606091505b50600081511415611b84576040517f08c379a0000000000000000000000000000000000000000000000000000000008152600401611b7b90612e8e565b60405180910390fd5b805181602001fd5b63150b7a0260e01b7bffffffffffffffffffffffffffffffffffffffffffffffffffffffff1916817bffffffffffffffffffffffffffffffffffffffffffffffffffffffff191614915050611be1565b600190505b949350505050565b600073ffffffffffffffffffffffffffffffffffffffff168273ffffffffffffffffffffffffffffffffffffffff161415611c59576040517f08c379a0000000000000000000000000000000000000000000000000000000008152600401611c5090612fdd565b60405180910390fd5b611c6281611981565b15611ca2576040517f08c379a0000000000000000000000000000000000000000000000000000000008152600401611c9990613049565b60405180910390fd5b611cae600083836119ed565b6001600360008473ffffffffffffffffffffffffffffffffffffffff1673ffffffffffffffffffffffffffffffffffffffff1681526020019081526020016000206000828254611cfe9190612d5a565b92505081905550816002600083815260200190815260200160002060006101000a81548173ffffffffffffffffffffffffffffffffffffffff021916908373ffffffffffffffffffffffffffffffffffffffff160217905550808273ffffffffffffffffffffffffffffffffffffffff16600073ffffffffffffffffffffffffffffffffffffffff167fddf252ad1be2c89b69c2b068fc378daa952ba7f163c4a11628f55a4df523b3ef60405160405180910390a4611dbf600083836119f2565b5050565b6000808273ffffffffffffffffffffffffffffffffffffffff163b119050919050565b828054611df29061284c565b90600052602060002090601f016020900481019282611e145760008555611e5b565b82601f10611e2d57805160ff1916838001178555611e5b565b82800160010185558215611e5b579182015b82811115611e5a578251825591602001919060010190611e3f565b5b509050611e689190611e6c565b5090565b5b80821115611e85576000816000905550600101611e6d565b5090565b6000604051905090565b600080fd5b600080fd5b60007fffffffff0000000000000000000000000000000000000000000000000000000082169050919050565b611ed281611e9d565b8114611edd57600080fd5b50565b600081359050611eef81611ec9565b92915050565b600060208284031215611f0b57611f0a611e93565b5b6000611f1984828501611ee0565b91505092915050565b60008115159050919050565b611f3781611f22565b82525050565b6000602082019050611f526000830184611f2e565b92915050565b600081519050919050565b600082825260208201905092915050565b60005b83811015611f92578082015181840152602081019050611f77565b83811115611fa1576000848401525b50505050565b6000601f19601f8301169050919050565b6000611fc382611f58565b611fcd8185611f63565b9350611fdd818560208601611f74565b611fe681611fa7565b840191505092915050565b6000602082019050818103600083015261200b8184611fb8565b905092915050565b6000819050919050565b61202681612013565b811461203157600080fd5b50565b6000813590506120438161201d565b92915050565b60006020828403121561205f5761205e611e93565b5b600061206d84828501612034565b91505092915050565b600073ffffffffffffffffffffffffffffffffffffffff82169050919050565b60006120a182612076565b9050919050565b6120b181612096565b82525050565b60006020820190506120cc60008301846120a8565b92915050565b6120db81612096565b81146120e657600080fd5b50565b6000813590506120f8816120d2565b92915050565b6000806040838503121561211557612114611e93565b5b6000612123858286016120e9565b925050602061213485828601612034565b9150509250929050565b60008060006060848603121561215757612156611e93565b5b6000612165868287016120e9565b9350506020612176868287016120e9565b925050604061218786828701612034565b9150509250925092565b61219a81612013565b82525050565b600060c0820190506121b56000830189612191565b6121c26020830188612191565b81810360408301526121d48187611fb8565b905081810360608301526121e88186611fb8565b90506121f76080830185612191565b61220460a0830184611f2e565b979650505050505050565b600080fd5b600080fd5b7f4e487b7100000000000000000000000000000000000000000000000000000000600052604160045260246000fd5b61225182611fa7565b810181811067ffffffffffffffff821117156122705761226f612219565b5b80604052505050565b6000612283611e89565b905061228f8282612248565b919050565b600067ffffffffffffffff8211156122af576122ae612219565b5b6122b882611fa7565b9050602081019050919050565b82818337600083830152505050565b60006122e76122e284612294565b612279565b90508281526020810184848401111561230357612302612214565b5b61230e8482856122c5565b509392505050565b600082601f83011261232b5761232a61220f565b5b813561233b8482602086016122d4565b91505092915050565b600080600080600060a086880312156123605761235f611e93565b5b600061236e888289016120e9565b955050602061237f88828901612034565b945050604086013567ffffffffffffffff8111156123a05761239f611e98565b5b6123ac88828901612316565b935050606086013567ffffffffffffffff8111156123cd576123cc611e98565b5b6123d988828901612316565b92505060806123ea88828901612034565b9150509295509295909350565b60006020828403121561240d5761240c611e93565b5b600061241b848285016120e9565b91505092915050565b60006020820190506124396000830184612191565b92915050565b61244881611f22565b811461245357600080fd5b50565b6000813590506124658161243f565b92915050565b6000806040838503121561248257612481611e93565b5b6000612490858286016120e9565b92505060206124a185828601612456565b9150509250929050565b600067ffffffffffffffff8211156124c6576124c5612219565b5b6124cf82611fa7565b9050602081019050919050565b60006124ef6124ea846124ab565b612279565b90508281526020810184848401111561250b5761250a612214565b5b6125168482856122c5565b509392505050565b600082601f8301126125335761253261220f565b5b81356125438482602086016124dc565b91505092915050565b6000806000806080858703121561256657612565611e93565b5b6000612574878288016120e9565b9450506020612585878288016120e9565b935050604061259687828801612034565b925050606085013567ffffffffffffffff8111156125b7576125b6611e98565b5b6125c38782880161251e565b91505092959194509250565b600081519050919050565b600082825260208201905092915050565b6000819050602082019050919050565b61260481612013565b82525050565b600061261683836125fb565b60208301905092915050565b6000602082019050919050565b600061263a826125cf565b61264481856125da565b935061264f836125eb565b8060005b83811015612680578151612667888261260a565b975061267283612622565b925050600181019050612653565b5085935050505092915050565b600060208201905081810360008301526126a7818461262f565b905092915050565b600080604083850312156126c6576126c5611e93565b5b60006126d4858286016120e9565b92505060206126e5858286016120e9565b9150509250929050565b600081519050919050565b600082825260208201905092915050565b6000819050602082019050919050565b600082825260208201905092915050565b600061273782611f58565b612741818561271b565b9350612751818560208601611f74565b61275a81611fa7565b840191505092915050565b6000612771838361272c565b905092915050565b6000602082019050919050565b6000612791826126ef565b61279b81856126fa565b9350836020820285016127ad8561270b565b8060005b858110156127e957848403895281516127ca8582612765565b94506127d583612779565b925060208a019950506001810190506127b1565b50829750879550505050505092915050565b600060208201905081810360008301526128158184612786565b905092915050565b7f4e487b7100000000000000000000000000000000000000000000000000000000600052602260045260246000fd5b6000600282049050600182168061286457607f821691505b602082108114156128785761287761281d565b5b50919050565b7f4552433732313a20617070726f76616c20746f2063757272656e74206f776e6560008201527f7200000000000000000000000000000000000000000000000000000000000000602082015250565b60006128da602183611f63565b91506128e58261287e565b604082019050919050565b60006020820190508181036000830152612909816128cd565b9050919050565b7f4552433732313a20617070726f76652063616c6c6572206973206e6f7420746f60008201527f6b656e206f776e6572206e6f7220617070726f76656420666f7220616c6c0000602082015250565b600061296c603e83611f63565b915061297782612910565b604082019050919050565b6000602082019050818103600083015261299b8161295f565b9050919050565b7f4552433732313a2063616c6c6572206973206e6f7420746f6b656e206f776e6560008201527f72206e6f7220617070726f766564000000000000000000000000000000000000602082015250565b60006129fe602e83611f63565b9150612a09826129a2565b604082019050919050565b60006020820190508181036000830152612a2d816129f1565b9050919050565b7f4552433732313a20696e76616c696420746f6b656e2049440000000000000000600082015250565b6000612a6a601883611f63565b9150612a7582612a34565b602082019050919050565b60006020820190508181036000830152612a9981612a5d565b9050919050565b6000604082019050612ab56000830185612191565b612ac260208301846120a8565b9392505050565b7f4552433732313a2061646472657373207a65726f206973206e6f74206120766160008201527f6c6964206f776e65720000000000000000000000000000000000000000000000602082015250565b6000612b25602983611f63565b9150612b3082612ac9565b604082019050919050565b60006020820190508181036000830152612b5481612b18565b9050919050565b7f4e487b7100000000000000000000000000000000000000000000000000000000600052601160045260246000fd5b6000612b9582612013565b9150612ba083612013565b925082821015612bb357612bb2612b5b565b5b828203905092915050565b7f4e487b7100000000000000000000000000000000000000000000000000000000600052603260045260246000fd5b6000612bf882612013565b91507fffffffffffffffffffffffffffffffffffffffffffffffffffffffffffffffff821415612c2b57612c2a612b5b565b5b600182019050919050565b7f4552433732313a207472616e736665722066726f6d20696e636f72726563742060008201527f6f776e6572000000000000000000000000000000000000000000000000000000602082015250565b6000612c92602583611f63565b9150612c9d82612c36565b604082019050919050565b60006020820190508181036000830152612cc181612c85565b9050919050565b7f4552433732313a207472616e7366657220746f20746865207a65726f2061646460008201527f7265737300000000000000000000000000000000000000000000000000000000602082015250565b6000612d24602483611f63565b9150612d2f82612cc8565b604082019050919050565b60006020820190508181036000830152612d5381612d17565b9050919050565b6000612d6582612013565b9150612d7083612013565b9250827fffffffffffffffffffffffffffffffffffffffffffffffffffffffffffffffff03821115612da557612da4612b5b565b5b828201905092915050565b7f4552433732313a20617070726f766520746f2063616c6c657200000000000000600082015250565b6000612de6601983611f63565b9150612df182612db0565b602082019050919050565b60006020820190508181036000830152612e1581612dd9565b9050919050565b7f4552433732313a207472616e7366657220746f206e6f6e20455243373231526560008201527f63656976657220696d706c656d656e7465720000000000000000000000000000602082015250565b6000612e78603283611f63565b9150612e8382612e1c565b604082019050919050565b60006020820190508181036000830152612ea781612e6b565b9050919050565b600081519050919050565b600082825260208201905092915050565b6000612ed582612eae565b612edf8185612eb9565b9350612eef818560208601611f74565b612ef881611fa7565b840191505092915050565b6000608082019050612f1860008301876120a8565b612f2560208301866120a8565b612f326040830185612191565b8181036060830152612f448184612eca565b905095945050505050565b600081519050612f5e81611ec9565b92915050565b600060208284031215612f7a57612f79611e93565b5b6000612f8884828501612f4f565b91505092915050565b7f4552433732313a206d696e7420746f20746865207a65726f2061646472657373600082015250565b6000612fc7602083611f63565b9150612fd282612f91565b602082019050919050565b60006020820190508181036000830152612ff681612fba565b9050919050565b7f4552433732313a20746f6b656e20616c7265616479206d696e74656400000000600082015250565b6000613033601c83611f63565b915061303e82612ffd565b602082019050919050565b6000602082019050818103600083015261306281613026565b905091905056fea26469706673582212200260d084adb0ff706ba9a416a4528d8ea403d6b8f6ac6af8e77b39eea0d729e164736f6c63430008080033a26469706673582212207d8142d04131bf939e8b833cb8b34ade567b2e4090e3a1bf09d7e9ac25ffe59e64736f6c63430008080033",
  "devdoc": {
    "kind": "dev",
    "methods": {},
    "version": 1
  },
  "userdoc": {
    "kind": "user",
    "methods": {},
    "version": 1
  },
  "storageLayout": {
    "storage": [
      {
        "astId": 1850,
        "contract": "contracts/Seller.sol:Seller",
        "label": "sellers",
        "offset": 0,
        "slot": "0",
        "type": "t_mapping(t_address,t_struct(data)1840_storage)"
      }
    ],
    "types": {
      "t_address": {
        "encoding": "inplace",
        "label": "address",
        "numberOfBytes": "20"
      },
      "t_bool": {
        "encoding": "inplace",
        "label": "bool",
        "numberOfBytes": "1"
      },
      "t_contract(WarrantyNFT)2277": {
        "encoding": "inplace",
        "label": "contract WarrantyNFT",
        "numberOfBytes": "20"
      },
      "t_mapping(t_address,t_struct(data)1840_storage)": {
        "encoding": "mapping",
        "key": "t_address",
        "label": "mapping(address => struct Library.data)",
        "numberOfBytes": "32",
        "value": "t_struct(data)1840_storage"
      },
      "t_struct(data)1840_storage": {
        "encoding": "inplace",
        "label": "struct Library.data",
        "members": [
          {
            "astId": 1837,
            "contract": "contracts/Seller.sol:Seller",
            "label": "WarrantyContract",
            "offset": 0,
            "slot": "0",
            "type": "t_contract(WarrantyNFT)2277"
          },
          {
            "astId": 1839,
            "contract": "contracts/Seller.sol:Seller",
            "label": "isValue",
            "offset": 20,
            "slot": "0",
            "type": "t_bool"
          }
        ],
        "numberOfBytes": "32"
      }
    }
  }
}