{
  "_format": "hh-sol-artifact-1",
  "contractName": "WarrantyNFTTest",
  "sourceName": "contracts/temp/WarrantyNFT.sol",
  "abi": [
    {
      "inputs": [
        {
          "internalType": "address",
          "name": "sellerId",
          "type": "address"
        },
        {
          "internalType": "string",
          "name": "NFTName",
          "type": "string"
        },
        {
          "internalType": "string",
          "name": "NFTSymbol",
          "type": "string"
        }
      ],
      "stateMutability": "nonpayable",
      "type": "constructor"
    },
    {
      "inputs": [],
      "name": "WarrantyNFT__AlreadyIssuedNFT",
      "type": "error"
    },
    {
      "inputs": [],
      "name": "WarrantyNFT__UpkeepNotNeeded",
      "type": "error"
    },
    {
      "inputs": [],
      "name": "WarrantyNFT__alreadyExists",
      "type": "error"
    },
    {
      "inputs": [],
      "name": "WarrantyNFT__orderNotFound",
      "type": "error"
    },
    {
      "anonymous": false,
      "inputs": [
        {
          "indexed": true,
          "internalType": "address",
          "name": "owner",
          "type": "address"
        },
        {
          "indexed": true,
          "internalType": "address",
          "name": "approved",
          "type": "address"
        },
        {
          "indexed": true,
          "internalType": "uint256",
          "name": "tokenId",
          "type": "uint256"
        }
      ],
      "name": "Approval",
      "type": "event"
    },
    {
      "anonymous": false,
      "inputs": [
        {
          "indexed": true,
          "internalType": "address",
          "name": "owner",
          "type": "address"
        },
        {
          "indexed": true,
          "internalType": "address",
          "name": "operator",
          "type": "address"
        },
        {
          "indexed": false,
          "internalType": "bool",
          "name": "approved",
          "type": "bool"
        }
      ],
      "name": "ApprovalForAll",
      "type": "event"
    },
    {
      "anonymous": false,
      "inputs": [
        {
          "indexed": false,
          "internalType": "uint256",
          "name": "tokenId",
          "type": "uint256"
        },
        {
          "indexed": false,
          "internalType": "address",
          "name": "owner",
          "type": "address"
        }
      ],
      "name": "NFTMinted",
      "type": "event"
    },
    {
      "anonymous": false,
      "inputs": [
        {
          "indexed": true,
          "internalType": "address",
          "name": "from",
          "type": "address"
        },
        {
          "indexed": true,
          "internalType": "address",
          "name": "to",
          "type": "address"
        },
        {
          "indexed": true,
          "internalType": "uint256",
          "name": "tokenId",
          "type": "uint256"
        }
      ],
      "name": "Transfer",
      "type": "event"
    },
    {
      "inputs": [
        {
          "internalType": "uint256",
          "name": "",
          "type": "uint256"
        }
      ],
      "name": "NftTokenToData",
      "outputs": [
        {
          "internalType": "uint256",
          "name": "tokenId",
          "type": "uint256"
        },
        {
          "internalType": "uint256",
          "name": "expiry",
          "type": "uint256"
        },
        {
          "internalType": "string",
          "name": "tokenURI",
          "type": "string"
        },
        {
          "internalType": "string",
          "name": "expireTokenURI",
          "type": "string"
        },
        {
          "internalType": "uint256",
          "name": "timeStamp",
          "type": "uint256"
        },
        {
          "internalType": "bool",
          "name": "expired",
          "type": "bool"
        }
      ],
      "stateMutability": "view",
      "type": "function"
    },
    {
      "inputs": [
        {
          "internalType": "address",
          "name": "to",
          "type": "address"
        },
        {
          "internalType": "uint256",
          "name": "tokenId",
          "type": "uint256"
        }
      ],
      "name": "approve",
      "outputs": [],
      "stateMutability": "nonpayable",
      "type": "function"
    },
    {
      "inputs": [
        {
          "internalType": "address",
          "name": "owner",
          "type": "address"
        }
      ],
      "name": "balanceOf",
      "outputs": [
        {
          "internalType": "uint256",
          "name": "",
          "type": "uint256"
        }
      ],
      "stateMutability": "view",
      "type": "function"
    },
    {
      "inputs": [
        {
          "internalType": "bytes",
          "name": "",
          "type": "bytes"
        }
      ],
      "name": "checkUpkeep",
      "outputs": [
        {
          "internalType": "bool",
          "name": "upkeepNeeded",
          "type": "bool"
        },
        {
          "internalType": "bytes",
          "name": "",
          "type": "bytes"
        }
      ],
      "stateMutability": "view",
      "type": "function"
    },
    {
      "inputs": [
        {
          "internalType": "uint256",
          "name": "tokenId",
          "type": "uint256"
        }
      ],
      "name": "getApproved",
      "outputs": [
        {
          "internalType": "address",
          "name": "",
          "type": "address"
        }
      ],
      "stateMutability": "view",
      "type": "function"
    },
    {
      "inputs": [
        {
          "internalType": "address",
          "name": "owner",
          "type": "address"
        },
        {
          "internalType": "address",
          "name": "operator",
          "type": "address"
        }
      ],
      "name": "isApprovedForAll",
      "outputs": [
        {
          "internalType": "bool",
          "name": "",
          "type": "bool"
        }
      ],
      "stateMutability": "view",
      "type": "function"
    },
    {
      "inputs": [
        {
          "internalType": "address",
          "name": "customer",
          "type": "address"
        },
        {
          "internalType": "uint256",
          "name": "orderId",
          "type": "uint256"
        },
        {
          "internalType": "string",
          "name": "tokenURI",
          "type": "string"
        },
        {
          "internalType": "string",
          "name": "expireTokenURI",
          "type": "string"
        },
        {
          "internalType": "uint256",
          "name": "expiry",
          "type": "uint256"
        }
      ],
      "name": "mintWarrantyNFT",
      "outputs": [],
      "stateMutability": "nonpayable",
      "type": "function"
    },
    {
      "inputs": [],
      "name": "name",
      "outputs": [
        {
          "internalType": "string",
          "name": "",
          "type": "string"
        }
      ],
      "stateMutability": "view",
      "type": "function"
    },
    {
      "inputs": [
        {
          "internalType": "uint256",
          "name": "tokenId",
          "type": "uint256"
        }
      ],
      "name": "ownerOf",
      "outputs": [
        {
          "internalType": "address",
          "name": "",
          "type": "address"
        }
      ],
      "stateMutability": "view",
      "type": "function"
    },
    {
      "inputs": [
        {
          "internalType": "bytes",
          "name": "",
          "type": "bytes"
        }
      ],
      "name": "performUpkeep",
      "outputs": [],
      "stateMutability": "nonpayable",
      "type": "function"
    },
    {
      "inputs": [
        {
          "internalType": "uint256",
          "name": "orderId",
          "type": "uint256"
        }
      ],
      "name": "placeOrder",
      "outputs": [],
      "stateMutability": "nonpayable",
      "type": "function"
    },
    {
      "inputs": [
        {
          "internalType": "address",
          "name": "from",
          "type": "address"
        },
        {
          "internalType": "address",
          "name": "to",
          "type": "address"
        },
        {
          "internalType": "uint256",
          "name": "tokenId",
          "type": "uint256"
        }
      ],
      "name": "safeTransferFrom",
      "outputs": [],
      "stateMutability": "nonpayable",
      "type": "function"
    },
    {
      "inputs": [
        {
          "internalType": "address",
          "name": "from",
          "type": "address"
        },
        {
          "internalType": "address",
          "name": "to",
          "type": "address"
        },
        {
          "internalType": "uint256",
          "name": "tokenId",
          "type": "uint256"
        },
        {
          "internalType": "bytes",
          "name": "data",
          "type": "bytes"
        }
      ],
      "name": "safeTransferFrom",
      "outputs": [],
      "stateMutability": "nonpayable",
      "type": "function"
    },
    {
      "inputs": [
        {
          "internalType": "address",
          "name": "operator",
          "type": "address"
        },
        {
          "internalType": "bool",
          "name": "approved",
          "type": "bool"
        }
      ],
      "name": "setApprovalForAll",
      "outputs": [],
      "stateMutability": "nonpayable",
      "type": "function"
    },
    {
      "inputs": [
        {
          "internalType": "bytes4",
          "name": "interfaceId",
          "type": "bytes4"
        }
      ],
      "name": "supportsInterface",
      "outputs": [
        {
          "internalType": "bool",
          "name": "",
          "type": "bool"
        }
      ],
      "stateMutability": "view",
      "type": "function"
    },
    {
      "inputs": [],
      "name": "symbol",
      "outputs": [
        {
          "internalType": "string",
          "name": "",
          "type": "string"
        }
      ],
      "stateMutability": "view",
      "type": "function"
    },
    {
      "inputs": [
        {
          "internalType": "uint256",
          "name": "tokenId",
          "type": "uint256"
        }
      ],
      "name": "tokenURI",
      "outputs": [
        {
          "internalType": "string",
          "name": "",
          "type": "string"
        }
      ],
      "stateMutability": "view",
      "type": "function"
    },
    {
      "inputs": [
        {
          "internalType": "address",
          "name": "from",
          "type": "address"
        },
        {
          "internalType": "address",
          "name": "to",
          "type": "address"
        },
        {
          "internalType": "uint256",
          "name": "tokenId",
          "type": "uint256"
        }
      ],
      "name": "transferFrom",
      "outputs": [],
      "stateMutability": "nonpayable",
      "type": "function"
    }
  ],
  "bytecode": "0x60a06040523480156200001157600080fd5b506040516200375a3803806200375a83398181016040528101906200003791906200035f565b8181816000908051906020019062000051929190620000ad565b5080600190805190602001906200006a929190620000ad565b5050508273ffffffffffffffffffffffffffffffffffffffff1660808173ffffffffffffffffffffffffffffffffffffffff1660601b815250505050506200045e565b828054620000bb9062000428565b90600052602060002090601f016020900481019282620000df57600085556200012b565b82601f10620000fa57805160ff19168380011785556200012b565b828001600101855582156200012b579182015b828111156200012a5782518255916020019190600101906200010d565b5b5090506200013a91906200013e565b5090565b5b80821115620001595760008160009055506001016200013f565b5090565b6000604051905090565b600080fd5b600080fd5b600073ffffffffffffffffffffffffffffffffffffffff82169050919050565b60006200019e8262000171565b9050919050565b620001b08162000191565b8114620001bc57600080fd5b50565b600081519050620001d081620001a5565b92915050565b600080fd5b600080fd5b6000601f19601f8301169050919050565b7f4e487b7100000000000000000000000000000000000000000000000000000000600052604160045260246000fd5b6200022b82620001e0565b810181811067ffffffffffffffff821117156200024d576200024c620001f1565b5b80604052505050565b6000620002626200015d565b905062000270828262000220565b919050565b600067ffffffffffffffff821115620002935762000292620001f1565b5b6200029e82620001e0565b9050602081019050919050565b60005b83811015620002cb578082015181840152602081019050620002ae565b83811115620002db576000848401525b50505050565b6000620002f8620002f28462000275565b62000256565b905082815260208101848484011115620003175762000316620001db565b5b62000324848285620002ab565b509392505050565b600082601f830112620003445762000343620001d6565b5b815162000356848260208601620002e1565b91505092915050565b6000806000606084860312156200037b576200037a62000167565b5b60006200038b86828701620001bf565b935050602084015167ffffffffffffffff811115620003af57620003ae6200016c565b5b620003bd868287016200032c565b925050604084015167ffffffffffffffff811115620003e157620003e06200016c565b5b620003ef868287016200032c565b9150509250925092565b7f4e487b7100000000000000000000000000000000000000000000000000000000600052602260045260246000fd5b600060028204905060018216806200044157607f821691505b60208210811415620004585762000457620003f9565b5b50919050565b60805160601c6132e06200047a600039600050506132e06000f3fe608060405234801561001057600080fd5b50600436106101165760003560e01c80636e04ff0d116100a2578063b88d4fde11610071578063b88d4fde14610309578063ba2255f414610325578063c4d73c9d14610341578063c87b56dd1461035d578063e985e9c51461038d57610116565b80636e04ff0d1461026e57806370a082311461029f57806395d89b41146102cf578063a22cb465146102ed57610116565b806323b872dd116100e957806323b872dd146101b557806342842e0e146101d15780634585e33b146101ed5780635e1f6edc146102095780636352211e1461023e57610116565b806301ffc9a71461011b57806306fdde031461014b578063081812fc14610169578063095ea7b314610199575b600080fd5b610135600480360381019061013091906120fa565b6103bd565b6040516101429190612142565b60405180910390f35b61015361049f565b60405161016091906121f6565b60405180910390f35b610183600480360381019061017e919061224e565b610531565b60405161019091906122bc565b60405180910390f35b6101b360048036038101906101ae9190612303565b610577565b005b6101cf60048036038101906101ca9190612343565b61068f565b005b6101eb60048036038101906101e69190612343565b6106ef565b005b610207600480360381019061020291906123fb565b61070f565b005b610223600480360381019061021e919061224e565b610954565b60405161023596959493929190612457565b60405180910390f35b6102586004803603810190610253919061224e565b610aad565b60405161026591906122bc565b60405180910390f35b610288600480360381019061028391906125f6565b610b5f565b604051610296929190612694565b60405180910390f35b6102b960048036038101906102b491906126c4565b610d91565b6040516102c691906126f1565b60405180910390f35b6102d7610e49565b6040516102e491906121f6565b60405180910390f35b61030760048036038101906103029190612738565b610edb565b005b610323600480360381019061031e9190612778565b610ef1565b005b61033f600480360381019061033a919061224e565b610f53565b005b61035b6004803603810190610356919061289c565b611090565b005b6103776004803603810190610372919061224e565b611378565b60405161038491906121f6565b60405180910390f35b6103a760048036038101906103a2919061294f565b611420565b6040516103b49190612142565b60405180910390f35b60007f80ac58cd000000000000000000000000000000000000000000000000000000007bffffffffffffffffffffffffffffffffffffffffffffffffffffffff1916827bffffffffffffffffffffffffffffffffffffffffffffffffffffffff1916148061048857507f5b5e139f000000000000000000000000000000000000000000000000000000007bffffffffffffffffffffffffffffffffffffffffffffffffffffffff1916827bffffffffffffffffffffffffffffffffffffffffffffffffffffffff1916145b806104985750610497826114b4565b5b9050919050565b6060600080546104ae906129be565b80601f01602080910402602001604051908101604052809291908181526020018280546104da906129be565b80156105275780601f106104fc57610100808354040283529160200191610527565b820191906000526020600020905b81548152906001019060200180831161050a57829003601f168201915b5050505050905090565b600061053c8261151e565b6004600083815260200190815260200160002060009054906101000a900473ffffffffffffffffffffffffffffffffffffffff169050919050565b600061058282610aad565b90508073ffffffffffffffffffffffffffffffffffffffff168373ffffffffffffffffffffffffffffffffffffffff1614156105f3576040517f08c379a00000000000000000000000000000000000000000000000000000000081526004016105ea90612a62565b60405180910390fd5b8073ffffffffffffffffffffffffffffffffffffffff16610612611569565b73ffffffffffffffffffffffffffffffffffffffff16148061064157506106408161063b611569565b611420565b5b610680576040517f08c379a000000000000000000000000000000000000000000000000000000000815260040161067790612af4565b60405180910390fd5b61068a8383611571565b505050565b6106a061069a611569565b8261162a565b6106df576040517f08c379a00000000000000000000000000000000000000000000000000000000081526004016106d690612b86565b60405180910390fd5b6106ea8383836116bf565b505050565b61070a83838360405180602001604052806000815250610ef1565b505050565b600061072960405180602001604052806000815250610b5f565b50905080610763576040517f08e9b3ae00000000000000000000000000000000000000000000000000000000815260040160405180910390fd5b600060096000600181526020019081526020016000206040518060c001604052908160008201548152602001600182015481526020016002820180546107a8906129be565b80601f01602080910402602001604051908101604052809291908181526020018280546107d4906129be565b80156108215780601f106107f657610100808354040283529160200191610821565b820191906000526020600020905b81548152906001019060200180831161080457829003601f168201915b5050505050815260200160038201805461083a906129be565b80601f0160208091040260200160405190810160405280929190818152602001828054610866906129be565b80156108b35780601f10610888576101008083540402835291602001916108b3565b820191906000526020600020905b81548152906001019060200180831161089657829003601f168201915b50505050508152602001600482015481526020016005820160009054906101000a900460ff16151515158152505090508060a0015161094e57600081602001518260800151426109039190612bd5565b119050801561094c5761091b60018360600151611926565b6001600960006001815260200190815260200160002060050160006101000a81548160ff0219169083151502179055505b505b50505050565b6009602052806000526040600020600091509050806000015490806001015490806002018054610983906129be565b80601f01602080910402602001604051908101604052809291908181526020018280546109af906129be565b80156109fc5780601f106109d1576101008083540402835291602001916109fc565b820191906000526020600020905b8154815290600101906020018083116109df57829003601f168201915b505050505090806003018054610a11906129be565b80601f0160208091040260200160405190810160405280929190818152602001828054610a3d906129be565b8015610a8a5780601f10610a5f57610100808354040283529160200191610a8a565b820191906000526020600020905b815481529060010190602001808311610a6d57829003601f168201915b5050505050908060040154908060050160009054906101000a900460ff16905086565b6000806002600084815260200190815260200160002060009054906101000a900473ffffffffffffffffffffffffffffffffffffffff169050600073ffffffffffffffffffffffffffffffffffffffff168173ffffffffffffffffffffffffffffffffffffffff161415610b56576040517f08c379a0000000000000000000000000000000000000000000000000000000008152600401610b4d90612c55565b60405180910390fd5b80915050919050565b600060606000600190506000600960008381526020019081526020016000206040518060c00160405290816000820154815260200160018201548152602001600282018054610bad906129be565b80601f0160208091040260200160405190810160405280929190818152602001828054610bd9906129be565b8015610c265780601f10610bfb57610100808354040283529160200191610c26565b820191906000526020600020905b815481529060010190602001808311610c0957829003601f168201915b50505050508152602001600382018054610c3f906129be565b80601f0160208091040260200160405190810160405280929190818152602001828054610c6b906129be565b8015610cb85780601f10610c8d57610100808354040283529160200191610cb8565b820191906000526020600020905b815481529060010190602001808311610c9b57829003601f168201915b50505050508152602001600482015481526020016005820160009054906101000a900460ff161515151581525050905060008160200151826080015142610cff9190612bd5565b1190508015610d4c5760016040518060400160405280600381526020017f307830000000000000000000000000000000000000000000000000000000000081525094509450505050610d8c565b60006040518060400160405280600381526020017f3078300000000000000000000000000000000000000000000000000000000000815250945094505050505b915091565b60008073ffffffffffffffffffffffffffffffffffffffff168273ffffffffffffffffffffffffffffffffffffffff161415610e02576040517f08c379a0000000000000000000000000000000000000000000000000000000008152600401610df990612ce7565b60405180910390fd5b600360008373ffffffffffffffffffffffffffffffffffffffff1673ffffffffffffffffffffffffffffffffffffffff168152602001908152602001600020549050919050565b606060018054610e58906129be565b80601f0160208091040260200160405190810160405280929190818152602001828054610e84906129be565b8015610ed15780601f10610ea657610100808354040283529160200191610ed1565b820191906000526020600020905b815481529060010190602001808311610eb457829003601f168201915b5050505050905090565b610eed610ee6611569565b838361199a565b5050565b610f02610efc611569565b8361162a565b610f41576040517f08c379a0000000000000000000000000000000000000000000000000000000008152600401610f3890612b86565b60405180910390fd5b610f4d84848484611b07565b50505050565b6000610fec600860003373ffffffffffffffffffffffffffffffffffffffff1673ffffffffffffffffffffffffffffffffffffffff168152602001908152602001600020805480602002602001604051908101604052809291908181526020018280548015610fe157602002820191906000526020600020905b815481526020019060010190808311610fcd575b505050505083611b63565b90508015611026576040517fa3dc114a00000000000000000000000000000000000000000000000000000000815260040160405180910390fd5b600860003373ffffffffffffffffffffffffffffffffffffffff1673ffffffffffffffffffffffffffffffffffffffff1681526020019081526020016000208290806001815401808255809150506001900390600052602060002001600090919091909150555050565b6000600860003373ffffffffffffffffffffffffffffffffffffffff1673ffffffffffffffffffffffffffffffffffffffff1681526020019081526020016000208054905011611115576040517f08c379a000000000000000000000000000000000000000000000000000000000815260040161110c90612d79565b60405180910390fd5b60006111ae600860008873ffffffffffffffffffffffffffffffffffffffff1673ffffffffffffffffffffffffffffffffffffffff1681526020019081526020016000208054806020026020016040519081016040528092919081815260200182805480156111a357602002820191906000526020600020905b81548152602001906001019080831161118f575b505050505086611b63565b9050806111e7576040517f4ec6212e00000000000000000000000000000000000000000000000000000000815260040160405180910390fd5b6000600a60008781526020019081526020016000205414611234576040517f3263593f00000000000000000000000000000000000000000000000000000000815260040160405180910390fd5b61123e6007611bbd565b600061124a6007611bd3565b90506112568782611be1565b6112608186611926565b6040518060c001604052808281526020018481526020018681526020018581526020014281526020016000151581525060096000838152602001908152602001600020600082015181600001556020820151816001015560408201518160020190805190602001906112d3929190611feb565b5060608201518160030190805190602001906112f0929190611feb565b506080820151816004015560a08201518160050160006101000a81548160ff02191690831515021790555090505080600a6000888152602001908152602001600020819055507f0176f203df400d7bd5f1b1c9ef36c16709bf3b5d9fd35f000a6bae32393f66c38188604051611367929190612d99565b60405180910390a150505050505050565b606060096000838152602001908152602001600020600201805461139b906129be565b80601f01602080910402602001604051908101604052809291908181526020018280546113c7906129be565b80156114145780601f106113e957610100808354040283529160200191611414565b820191906000526020600020905b8154815290600101906020018083116113f757829003601f168201915b50505050509050919050565b6000600560008473ffffffffffffffffffffffffffffffffffffffff1673ffffffffffffffffffffffffffffffffffffffff16815260200190815260200160002060008373ffffffffffffffffffffffffffffffffffffffff1673ffffffffffffffffffffffffffffffffffffffff16815260200190815260200160002060009054906101000a900460ff16905092915050565b60007f01ffc9a7000000000000000000000000000000000000000000000000000000007bffffffffffffffffffffffffffffffffffffffffffffffffffffffff1916827bffffffffffffffffffffffffffffffffffffffffffffffffffffffff1916149050919050565b61152781611dbb565b611566576040517f08c379a000000000000000000000000000000000000000000000000000000000815260040161155d90612c55565b60405180910390fd5b50565b600033905090565b816004600083815260200190815260200160002060006101000a81548173ffffffffffffffffffffffffffffffffffffffff021916908373ffffffffffffffffffffffffffffffffffffffff160217905550808273ffffffffffffffffffffffffffffffffffffffff166115e483610aad565b73ffffffffffffffffffffffffffffffffffffffff167f8c5be1e5ebec7d5bd14f71427d1e84f3dd0314c0f7b2291e5b200ac8c7c3b92560405160405180910390a45050565b60008061163683610aad565b90508073ffffffffffffffffffffffffffffffffffffffff168473ffffffffffffffffffffffffffffffffffffffff16148061167857506116778185611420565b5b806116b657508373ffffffffffffffffffffffffffffffffffffffff1661169e84610531565b73ffffffffffffffffffffffffffffffffffffffff16145b91505092915050565b8273ffffffffffffffffffffffffffffffffffffffff166116df82610aad565b73ffffffffffffffffffffffffffffffffffffffff1614611735576040517f08c379a000000000000000000000000000000000000000000000000000000000815260040161172c90612e34565b60405180910390fd5b600073ffffffffffffffffffffffffffffffffffffffff168273ffffffffffffffffffffffffffffffffffffffff1614156117a5576040517f08c379a000000000000000000000000000000000000000000000000000000000815260040161179c90612ec6565b60405180910390fd5b6117b0838383611e27565b6117bb600082611571565b6001600360008573ffffffffffffffffffffffffffffffffffffffff1673ffffffffffffffffffffffffffffffffffffffff168152602001908152602001600020600082825461180b9190612bd5565b925050819055506001600360008473ffffffffffffffffffffffffffffffffffffffff1673ffffffffffffffffffffffffffffffffffffffff16815260200190815260200160002060008282546118629190612ee6565b92505081905550816002600083815260200190815260200160002060006101000a81548173ffffffffffffffffffffffffffffffffffffffff021916908373ffffffffffffffffffffffffffffffffffffffff160217905550808273ffffffffffffffffffffffffffffffffffffffff168473ffffffffffffffffffffffffffffffffffffffff167fddf252ad1be2c89b69c2b068fc378daa952ba7f163c4a11628f55a4df523b3ef60405160405180910390a4611921838383611e2c565b505050565b61192f82611dbb565b61196e576040517f08c379a000000000000000000000000000000000000000000000000000000000815260040161196590612fae565b60405180910390fd5b80600660008481526020019081526020016000209080519060200190611995929190611feb565b505050565b8173ffffffffffffffffffffffffffffffffffffffff168373ffffffffffffffffffffffffffffffffffffffff161415611a09576040517f08c379a0000000000000000000000000000000000000000000000000000000008152600401611a009061301a565b60405180910390fd5b80600560008573ffffffffffffffffffffffffffffffffffffffff1673ffffffffffffffffffffffffffffffffffffffff16815260200190815260200160002060008473ffffffffffffffffffffffffffffffffffffffff1673ffffffffffffffffffffffffffffffffffffffff16815260200190815260200160002060006101000a81548160ff0219169083151502179055508173ffffffffffffffffffffffffffffffffffffffff168373ffffffffffffffffffffffffffffffffffffffff167f17307eab39ab6107e8899845ad3d59bd9653f200f220920489ca2b5937696c3183604051611afa9190612142565b60405180910390a3505050565b611b128484846116bf565b611b1e84848484611e31565b611b5d576040517f08c379a0000000000000000000000000000000000000000000000000000000008152600401611b54906130ac565b60405180910390fd5b50505050565b600080600090505b8351811015611bb15782848281518110611b8857611b876130cc565b5b60200260200101511415611ba0576001915050611bb7565b80611baa906130fb565b9050611b6b565b50600090505b92915050565b6001816000016000828254019250508190555050565b600081600001549050919050565b600073ffffffffffffffffffffffffffffffffffffffff168273ffffffffffffffffffffffffffffffffffffffff161415611c51576040517f08c379a0000000000000000000000000000000000000000000000000000000008152600401611c4890613190565b60405180910390fd5b611c5a81611dbb565b15611c9a576040517f08c379a0000000000000000000000000000000000000000000000000000000008152600401611c91906131fc565b60405180910390fd5b611ca660008383611e27565b6001600360008473ffffffffffffffffffffffffffffffffffffffff1673ffffffffffffffffffffffffffffffffffffffff1681526020019081526020016000206000828254611cf69190612ee6565b92505081905550816002600083815260200190815260200160002060006101000a81548173ffffffffffffffffffffffffffffffffffffffff021916908373ffffffffffffffffffffffffffffffffffffffff160217905550808273ffffffffffffffffffffffffffffffffffffffff16600073ffffffffffffffffffffffffffffffffffffffff167fddf252ad1be2c89b69c2b068fc378daa952ba7f163c4a11628f55a4df523b3ef60405160405180910390a4611db760008383611e2c565b5050565b60008073ffffffffffffffffffffffffffffffffffffffff166002600084815260200190815260200160002060009054906101000a900473ffffffffffffffffffffffffffffffffffffffff1673ffffffffffffffffffffffffffffffffffffffff1614159050919050565b505050565b505050565b6000611e528473ffffffffffffffffffffffffffffffffffffffff16611fc8565b15611fbb578373ffffffffffffffffffffffffffffffffffffffff1663150b7a02611e7b611569565b8786866040518563ffffffff1660e01b8152600401611e9d949392919061321c565b602060405180830381600087803b158015611eb757600080fd5b505af1925050508015611ee857506040513d601f19601f82011682018060405250810190611ee5919061327d565b60015b611f6b573d8060008114611f18576040519150601f19603f3d011682016040523d82523d6000602084013e611f1d565b606091505b50600081511415611f63576040517f08c379a0000000000000000000000000000000000000000000000000000000008152600401611f5a906130ac565b60405180910390fd5b805181602001fd5b63150b7a0260e01b7bffffffffffffffffffffffffffffffffffffffffffffffffffffffff1916817bffffffffffffffffffffffffffffffffffffffffffffffffffffffff191614915050611fc0565b600190505b949350505050565b6000808273ffffffffffffffffffffffffffffffffffffffff163b119050919050565b828054611ff7906129be565b90600052602060002090601f0160209004810192826120195760008555612060565b82601f1061203257805160ff1916838001178555612060565b82800160010185558215612060579182015b8281111561205f578251825591602001919060010190612044565b5b50905061206d9190612071565b5090565b5b8082111561208a576000816000905550600101612072565b5090565b6000604051905090565b600080fd5b600080fd5b60007fffffffff0000000000000000000000000000000000000000000000000000000082169050919050565b6120d7816120a2565b81146120e257600080fd5b50565b6000813590506120f4816120ce565b92915050565b6000602082840312156121105761210f612098565b5b600061211e848285016120e5565b91505092915050565b60008115159050919050565b61213c81612127565b82525050565b60006020820190506121576000830184612133565b92915050565b600081519050919050565b600082825260208201905092915050565b60005b8381101561219757808201518184015260208101905061217c565b838111156121a6576000848401525b50505050565b6000601f19601f8301169050919050565b60006121c88261215d565b6121d28185612168565b93506121e2818560208601612179565b6121eb816121ac565b840191505092915050565b6000602082019050818103600083015261221081846121bd565b905092915050565b6000819050919050565b61222b81612218565b811461223657600080fd5b50565b60008135905061224881612222565b92915050565b60006020828403121561226457612263612098565b5b600061227284828501612239565b91505092915050565b600073ffffffffffffffffffffffffffffffffffffffff82169050919050565b60006122a68261227b565b9050919050565b6122b68161229b565b82525050565b60006020820190506122d160008301846122ad565b92915050565b6122e08161229b565b81146122eb57600080fd5b50565b6000813590506122fd816122d7565b92915050565b6000806040838503121561231a57612319612098565b5b6000612328858286016122ee565b925050602061233985828601612239565b9150509250929050565b60008060006060848603121561235c5761235b612098565b5b600061236a868287016122ee565b935050602061237b868287016122ee565b925050604061238c86828701612239565b9150509250925092565b600080fd5b600080fd5b600080fd5b60008083601f8401126123bb576123ba612396565b5b8235905067ffffffffffffffff8111156123d8576123d761239b565b5b6020830191508360018202830111156123f4576123f36123a0565b5b9250929050565b6000806020838503121561241257612411612098565b5b600083013567ffffffffffffffff8111156124305761242f61209d565b5b61243c858286016123a5565b92509250509250929050565b61245181612218565b82525050565b600060c08201905061246c6000830189612448565b6124796020830188612448565b818103604083015261248b81876121bd565b9050818103606083015261249f81866121bd565b90506124ae6080830185612448565b6124bb60a0830184612133565b979650505050505050565b600080fd5b7f4e487b7100000000000000000000000000000000000000000000000000000000600052604160045260246000fd5b612503826121ac565b810181811067ffffffffffffffff82111715612522576125216124cb565b5b80604052505050565b600061253561208e565b905061254182826124fa565b919050565b600067ffffffffffffffff821115612561576125606124cb565b5b61256a826121ac565b9050602081019050919050565b82818337600083830152505050565b600061259961259484612546565b61252b565b9050828152602081018484840111156125b5576125b46124c6565b5b6125c0848285612577565b509392505050565b600082601f8301126125dd576125dc612396565b5b81356125ed848260208601612586565b91505092915050565b60006020828403121561260c5761260b612098565b5b600082013567ffffffffffffffff81111561262a5761262961209d565b5b612636848285016125c8565b91505092915050565b600081519050919050565b600082825260208201905092915050565b60006126668261263f565b612670818561264a565b9350612680818560208601612179565b612689816121ac565b840191505092915050565b60006040820190506126a96000830185612133565b81810360208301526126bb818461265b565b90509392505050565b6000602082840312156126da576126d9612098565b5b60006126e8848285016122ee565b91505092915050565b60006020820190506127066000830184612448565b92915050565b61271581612127565b811461272057600080fd5b50565b6000813590506127328161270c565b92915050565b6000806040838503121561274f5761274e612098565b5b600061275d858286016122ee565b925050602061276e85828601612723565b9150509250929050565b6000806000806080858703121561279257612791612098565b5b60006127a0878288016122ee565b94505060206127b1878288016122ee565b93505060406127c287828801612239565b925050606085013567ffffffffffffffff8111156127e3576127e261209d565b5b6127ef878288016125c8565b91505092959194509250565b600067ffffffffffffffff821115612816576128156124cb565b5b61281f826121ac565b9050602081019050919050565b600061283f61283a846127fb565b61252b565b90508281526020810184848401111561285b5761285a6124c6565b5b612866848285612577565b509392505050565b600082601f83011261288357612882612396565b5b813561289384826020860161282c565b91505092915050565b600080600080600060a086880312156128b8576128b7612098565b5b60006128c6888289016122ee565b95505060206128d788828901612239565b945050604086013567ffffffffffffffff8111156128f8576128f761209d565b5b6129048882890161286e565b935050606086013567ffffffffffffffff8111156129255761292461209d565b5b6129318882890161286e565b925050608061294288828901612239565b9150509295509295909350565b6000806040838503121561296657612965612098565b5b6000612974858286016122ee565b9250506020612985858286016122ee565b9150509250929050565b7f4e487b7100000000000000000000000000000000000000000000000000000000600052602260045260246000fd5b600060028204905060018216806129d657607f821691505b602082108114156129ea576129e961298f565b5b50919050565b7f4552433732313a20617070726f76616c20746f2063757272656e74206f776e6560008201527f7200000000000000000000000000000000000000000000000000000000000000602082015250565b6000612a4c602183612168565b9150612a57826129f0565b604082019050919050565b60006020820190508181036000830152612a7b81612a3f565b9050919050565b7f4552433732313a20617070726f76652063616c6c6572206973206e6f7420746f60008201527f6b656e206f776e6572206e6f7220617070726f76656420666f7220616c6c0000602082015250565b6000612ade603e83612168565b9150612ae982612a82565b604082019050919050565b60006020820190508181036000830152612b0d81612ad1565b9050919050565b7f4552433732313a2063616c6c6572206973206e6f7420746f6b656e206f776e6560008201527f72206e6f7220617070726f766564000000000000000000000000000000000000602082015250565b6000612b70602e83612168565b9150612b7b82612b14565b604082019050919050565b60006020820190508181036000830152612b9f81612b63565b9050919050565b7f4e487b7100000000000000000000000000000000000000000000000000000000600052601160045260246000fd5b6000612be082612218565b9150612beb83612218565b925082821015612bfe57612bfd612ba6565b5b828203905092915050565b7f4552433732313a20696e76616c696420746f6b656e2049440000000000000000600082015250565b6000612c3f601883612168565b9150612c4a82612c09565b602082019050919050565b60006020820190508181036000830152612c6e81612c32565b9050919050565b7f4552433732313a2061646472657373207a65726f206973206e6f74206120766160008201527f6c6964206f776e65720000000000000000000000000000000000000000000000602082015250565b6000612cd1602983612168565b9150612cdc82612c75565b604082019050919050565b60006020820190508181036000830152612d0081612cc4565b9050919050565b7f4e6f7420416c6c6f7765642c20596f7520617265206e6f7420637573746f6d6560008201527f7200000000000000000000000000000000000000000000000000000000000000602082015250565b6000612d63602183612168565b9150612d6e82612d07565b604082019050919050565b60006020820190508181036000830152612d9281612d56565b9050919050565b6000604082019050612dae6000830185612448565b612dbb60208301846122ad565b9392505050565b7f4552433732313a207472616e736665722066726f6d20696e636f72726563742060008201527f6f776e6572000000000000000000000000000000000000000000000000000000602082015250565b6000612e1e602583612168565b9150612e2982612dc2565b604082019050919050565b60006020820190508181036000830152612e4d81612e11565b9050919050565b7f4552433732313a207472616e7366657220746f20746865207a65726f2061646460008201527f7265737300000000000000000000000000000000000000000000000000000000602082015250565b6000612eb0602483612168565b9150612ebb82612e54565b604082019050919050565b60006020820190508181036000830152612edf81612ea3565b9050919050565b6000612ef182612218565b9150612efc83612218565b9250827fffffffffffffffffffffffffffffffffffffffffffffffffffffffffffffffff03821115612f3157612f30612ba6565b5b828201905092915050565b7f45524337323155524953746f726167653a2055524920736574206f66206e6f6e60008201527f6578697374656e7420746f6b656e000000000000000000000000000000000000602082015250565b6000612f98602e83612168565b9150612fa382612f3c565b604082019050919050565b60006020820190508181036000830152612fc781612f8b565b9050919050565b7f4552433732313a20617070726f766520746f2063616c6c657200000000000000600082015250565b6000613004601983612168565b915061300f82612fce565b602082019050919050565b6000602082019050818103600083015261303381612ff7565b9050919050565b7f4552433732313a207472616e7366657220746f206e6f6e20455243373231526560008201527f63656976657220696d706c656d656e7465720000000000000000000000000000602082015250565b6000613096603283612168565b91506130a18261303a565b604082019050919050565b600060208201905081810360008301526130c581613089565b9050919050565b7f4e487b7100000000000000000000000000000000000000000000000000000000600052603260045260246000fd5b600061310682612218565b91507fffffffffffffffffffffffffffffffffffffffffffffffffffffffffffffffff82141561313957613138612ba6565b5b600182019050919050565b7f4552433732313a206d696e7420746f20746865207a65726f2061646472657373600082015250565b600061317a602083612168565b915061318582613144565b602082019050919050565b600060208201905081810360008301526131a98161316d565b9050919050565b7f4552433732313a20746f6b656e20616c7265616479206d696e74656400000000600082015250565b60006131e6601c83612168565b91506131f1826131b0565b602082019050919050565b60006020820190508181036000830152613215816131d9565b9050919050565b600060808201905061323160008301876122ad565b61323e60208301866122ad565b61324b6040830185612448565b818103606083015261325d818461265b565b905095945050505050565b600081519050613277816120ce565b92915050565b60006020828403121561329357613292612098565b5b60006132a184828501613268565b9150509291505056fea26469706673582212202b4daef64168c82a399b1fec75bbef12cc2788b72a0de42cc64e1d06c86f852d64736f6c63430008080033",
  "linkReferences": {},
  "deployedLinkReferences": {}
}